:100000000C9454000C9473000C9473000C947300C3
:100010000C9473000C9473000C9473000C94730094
:100020000C9473000C9473000C9473000C94730084
:100030000C9473000C9473000C9473000C94730074
:100040000C9473000C9473000C9473000C94730064
:100050000C9473000C9473000C9473000C94730054
:100060000C9473000C9473000C9473000C94730044
:100070000C9473000C9473000C9473000C94730034
:100080000C9473000C9473000C947300E900F4005A
:1000900019012601440151015E017F0186018A0197
:1000A0008E01920199019F0111241FBECFEFD0E470
:1000B000DEBFCDBF11E0A0E0B1E0EAE8F3E000E090
:1000C0000BBF02C007900D92AE30B107D9F721E007
:1000D000AEE0B1E001C01D92A131B207E1F70E948C
:1000E0009E000C94C3010C940000CF93DF9300D0CA
:1000F0001F92CDB7DEB789837B836A8389818A307B
:1001000031F48A819B81BC018DE00E94750080ECF6
:1001100090E0FC018081882F90E080729927892BE4
:10012000B1F386EC90E02981FC01208380E090E02F
:100130000F900F900F90DF91CF910895CF93DF93A1
:1001400000D0CDB7DEB781E290E0FC01108282E200
:1001500090E02FEFFC01208384E290E02FEFFC0180
:10016000208385E290E0FC01108287E290E02FEF8F
:10017000FC01208388E290E0FC0110821A8219823F
:1001800089819A810E94C7009A838983F9CFCF938E
:10019000DF9300D01F92CDB7DEB79B838A8380E2C6
:1001A00090E0FC01808189838A819B81092E000C6B
:1001B000AA0BBB0B40E050E026E030E0841B950B1F
:1001C0002817390708F487C08A5B9F4FFC010C94FD
:1001D000BA0181E090E09B838A8310920E01109215
:1001E0000F011092100177C08981813029F482E0DB
:1001F00090E09B838A836FC08981823029F483E0F9
:1002000090E09B838A8367C08981843029F484E0ED
:1002100090E09B838A835FC08981803829F485E0E0
:1002200090E09B838A8357C081E090E09B838A8320
:1002300052C08981813029F482E090E09B838A83D7
:100240004AC081E090E09B838A8345C080910F0182
:10025000843061F480910E01882319F085E090E0EC
:1002600002C086E090E09B838A8335C08A819B81AF
:10027000029729F483E090E09B838A832CC081E07D
:1002800090E09B838A8327C08981843029F484E0AD
:1002900090E09B838A831FC081E090E09B838A83E8
:1002A0001AC08981803829F485E090E09B838A8395
:1002B00012C081E090E09B838A830DC089818823EE
:1002C00029F086E090E09B838A8304C081E090E07F
:1002D0009B838A8300008A819B81092E000CAA0BD4
:1002E000BB0B40E050E026E030E0841B950B281764
:1002F000390760F1835B9F4FFC010C94BA011092A7
:100300000E0110920F011092100120C081E0809325
:1003100010011CC082E08093100118C083E080931C
:10032000100114C084E08093100184E080930F01D9
:100330000DC010920E0185E08093100107C081E08E
:1003400080930E0186E080931001000085E290E02A
:1003500020910E01FC01208388E290E020911001A1
:10036000FC0120838A819B810F900F900F90DF9179
:10037000CF910895EE0FFF1F0024001C0BBE0790C5
:0A038000F691E02D0994F894FFCFE8
:0E038A000000000200000000750000000000EE
:00000001FF
