:100000000C944D000C946C000C946C000C946C00DF
:100010000C946C000C946C000C946C000C946C00B0
:100020000C946C000C946C000C946C000C946C00A0
:100030000C946C000C946C000C946C000C946C0090
:100040000C946C000C946C000C946C000C946C0080
:100050000C946C000C946C000C946C000C946C0070
:100060000C946C000C946C000C946C000C946C0060
:100070000C946C000C946C000C946C000C946C0050
:100080000C946C000C946C000C946C008C008F0031
:10009000AD00C9009E00BC00D20011241FBECFEFEE
:1000A000D0E4DEBFCDBF11E0A0E0B1E0ECE7F2E0CC
:1000B00000E00BBF02C007900D92AE30B107D9F738
:1000C00021E0AEE0B1E001C01D92AF30B207E1F730
:1000D0000E9429010C943C010C940000CF93C82F7E
:1000E0008A3019F48DE00E946E008091C00085FF77
:1000F000FCCFC093C60080E090E0CF91089520B17E
:10010000217030B132708730910508F052C0FC0187
:10011000EA5BFF4F0C94330181E090E076C022232C
:1001200019F0332309F448C0211102C0311147C02E
:10013000222309F46AC0311145C067C0222319F097
:10014000332309F442C0222311F0311141C021119F
:100150005CC0332309F43FC058C0211102C03323CF
:10016000E9F1222319F0332309F44FC0222309F4C3
:100170004CC0311136C049C0211102C0311134C008
:10018000222311F0311133C021113FC0332391F1EB
:100190003CC0211102C0332381F12223B1F131117E
:1001A0002FC033C0222379F131112FC081E090E0BC
:1001B0002CC080E090E029C084E090E026C085E07B
:1001C00090E023C086E090E020C082E090E01DC077
:1001D00086E090E01AC081E090E017C081E090E0F6
:1001E00014C086E090E011C083E090E00EC086E08D
:1001F00090E00BC081E090E008C081E090E005C095
:1002000086E090E002C081E090E08430910579F0D2
:100210001CF4009741F019C08530910571F08630CB
:10022000910589F012C027E020930E010EC02091A5
:100230000E012F5F20930E0108C020910E01215066
:1002400020930E0102C010920E0120910E0128B9D8
:10025000089511B88FEF82B987B918B880E090E09F
:100260000E947F00FDCFEE0FFF1F0024001C0BBE7D
:0C0270000790F691E02D0994F894FFCF60
:0E027C0000000002000000006E000000000004
:00000001FF
