:100000000C9454000C9473000C9473000C947300C3
:100010000C9473000C9473000C9473000C94730094
:100020000C9473000C9473000C9473000C94730084
:100030000C9473000C9473000C9473000C94730074
:100040000C9473000C9473000C9473000C94730064
:100050000C9473000C9473000C9473000C94730054
:100060000C9473000C9473000C9473000C94730044
:100070000C9473000C9473000C9473000C94730034
:100080000C9473000C9473000C947300AF009000F8
:100090009B009E00A600A900AC00D400DB00DF009E
:1000A000E300E700ED00F30011241FBECFEFD0E422
:1000B000DEBFCDBF11E0A0E0B1E0EEE2F2E000E093
:1000C0000BBF02C007900D92AE30B107D9F711E017
:1000D000AEE0B1E001C01D92A131B107E1F70E948D
:1000E00000010C9415010C940000CF93C82F8A30A6
:1000F00019F48DE00E9475009091C00095FFFCCF2F
:10010000C093C60080E090E0CF91089520B1873081
:10011000910508F041C0FC01EA5BFF4F0C940C0113
:10012000213001F1223009F1243011F12038A1F5FC
:1001300085E090E031C02130F1F42EC02091100113
:100140002430E1F082309105E1F426C02430E1F45E
:1001500023C02038E1F420C021111EC01BC081E063
:1001600090E01AC082E090E017C083E090E014C0F5
:1001700084E090E011C081E090E00EC086E090E065
:100180000BC081E090E008C081E090E005C081E014
:1001900090E002C081E090E08730910550F5FC01CD
:1001A000E35BFF4F0C940C0110920F0110921001B1
:1001B00010920E011EC021E020930E011AC022E011
:1001C00020930E0116C023E020930E0112C024E0FC
:1001D00020930E01209310010CC010920F0125E016
:1001E00020930E0106C021E020930F0126E020930A
:1001F0000E0120910F0125B920910E0128B9089513
:1002000011B88FEF82B984B915B887B918B880E0F2
:1002100090E00E948600FDCFEE0FFF1F0024001C1F
:0E0220000BBE0790F691E02D0994F894FFCFE5
:0E022E0000000002000000007500000000004B
:00000001FF
