:100000000C9446000C9465000C9465000C946500FB
:100010000C9465000C9465000C9465000C946500CC
:100020000C9465000C9465000C9465000C946500BC
:100030000C9465000C9465000C9465000C946500AC
:100040000C9465000C9465000C9465000C9465009C
:100050000C9465000C9465000C9465000C9465008C
:100060000C9465000C9465000C9465000C9465007C
:100070000C9465000C9465000C9465000C9465006C
:100080000C9465000C9465000C94650011241FBE4F
:10009000CFEFD0E4DEBFCDBF11E0A0E0B1E0E4E8F7
:1000A000F1E000E00BBF02C007900D92AE30B10747
:1000B000D9F711E0AEE0B1E001C01D92AF30B10759
:1000C000E1F70E94B6000C94C0000C940000CF939E
:1000D000C82F8A3019F48DE00E9467009091C0000B
:1000E00095FFFCCFC093C60080E090E0CF910895CB
:1000F00020B1217082309105B1F034F4009759F0AD
:100100008130910559F01EC08330910589F084300B
:10011000910599F017C081E090E016C02223A1F06C
:1001200082E090E011C021110FC083E090E00CC08C
:10013000222351F084E090E007C0211105C081E046
:1001400090E002C080E090E08230910521F08430A0
:10015000910529F007C021E020930E0103C022E0A1
:1001600020930E0120910E0125B9089511B88FEF4B
:1001700082B984B915B880E090E00E947800FDCF84
:04018000F894FFCF21
:0E018400000000020000000067000000000004
:00000001FF
